:020000008C2949
:06000600000000000800EC
:0E000C00213083120313FD00FD0B0A280800AB
:10001A000F3083120313FC004730FD00FD0B132839
:0A002A00FC0B132800000000080082
:1000340083120313B91B2028881321288817391B1E
:100044002528081326280817B91A2A2888122B28C5
:100054008816391A2F280812302808162F18342821
:10006400871635288712071603200712B9193C286A
:1000740088133D288817391941280813422808177E
:10008400B918462888124728881639184B280812A8
:100094004C2808162F18502887165128871207163F
:1000A400032007122F1C58280D2059280620080069
:0E00B4008312031331088A003008820008000E
:1000C200831203132F103808B9001A202F140800C6
:1000D200023083120313FC004930FD00FD0B6F2830
:0A00E200FC0B6F280000000008006E
:1000EC0083120313F8010830FC00700DF80D74082E
:1000FC00F80203188328F8070310F00DFC0B7B287B
:02010C000800E9
:10010E0083120313B7013308F1000130F0007108B8
:10011E0003199528F00D7010FF3E8F287008B60059
:10012E003208840070080005F10071080130031DCB
:10013E000030F0003508F0060319BD283408003CE5
:10014E000318AD2869206920B403A528320884005D
:10015E0036080005F10071080130031D0030F00073
:10016E003508F0060319BD28FF30B7003708F00038
:02017E00080077
:10018000D228803083120313B200E528C030B200B9
:10019000E5289430B200E528D430B200E52880305C
:1001A000B200E528831203133208013A0319C1286B
:1001B0003208023A0319C6283208033A0319C9283B
:1001C0003208043A0319CC28CF283303F000320850
:1001D000F0077008B2007008B9001A202F10B5019E
:1001E00035083407840000080319FE283508340751
:1001F00084000008B8006120B50AF0282F14080018
:1002000083120313B4010330340203180E29340897
:100210003307840020308000B40A032934083307F0
:1002200084008001B40334083307B5000A30F400B9
:100230003208F00076207808F0003030F0073508FA
:100240008400700880000A30F4003208F000762044
:100250007008B2007008003A031D2F293129B40339
:040260001329080056
:1002640083160313071287120812881208138813BF
:1002740083120712871288130813881208120D209C
:100284000D200D20881608160716032007120D20CE
:100294000716032007120D200716032007120D204E
:1002A40008120716032007120D2007160320071251
:1002B400881288170716032007120D2088130816C2
:1002C40007160320071208120716032007120D2031
:1002D40007160320071208160716032007120D201D
:1002E400081207160320071288170817881608161D
:0C02F4000716032007120D202F1408002D
:100300005A208A110A128000840AB00A0319B10A1D
:08031000F003031D8029080021
:1003180083120313A001A1015030A2006530A3008D
:100328007230A4007330A5006F30A6006E30A700AD
:100338006130A8007330A900AA0103178713881336
:1003480083168801890103138801831288018316A3
:100358008601061483128601831681133221013027
:10036800B9001A200C30B9001A200130B9001A203F
:100378000130B2000130B3002230B400C0202008A0
:10038800B2002B30B30000210230B2000630B300B7
:100398002B30B400C0200630B200B301B401B5015F
:1003A800872070080319DA290130A1000630B2004D
:1003B800B301B4010130B500872070080319EA2998
:1003C8002108013A031DEA29A101A00AC329EB2942
:04400E00F22F000786
:00000001FF
