:02000000552980
:0E000600213083120313FD00FD0B07280800B4
:06001400000000000800DE
:10001A000F3083120313FC004730FD00FD0B132839
:0A002A00FC0B132800000000080082
:1000340083120313B51B2028881321288817351B26
:100044002528081326280817B51A2A2888122B28C9
:100054008816351A2F280812302808162C18342828
:1000640087163528871207160A200712B5193C2867
:1000740088133D2888173519412808134228081782
:10008400B518462888124728881635184B280812B0
:100094004C2808162C185028871651288712071642
:1000A4000A2007122C1C58280D2059280320080068
:1000B400831203132C103408B5001A202C140800E2
:0E00C400831203132E088A002D088200080004
:1000D2007B28803083120313B0008E28C030B0001A
:1000E2008E289430B0008E28D430B0008E28803014
:1000F200B0008E28831203133008013A03196A28CC
:100102003008023A03196F283008033A031972289B
:100112003008043A0319752878283103F0003008B2
:10012200F0077008B0002C147008B5001A202C10CB
:0A0132003208B5001A202C14080052
:10013C00831203133008B5001A20B3013308073CAF
:10014C00031CBA2833083107F00032080318013EAB
:10015C00F1007008AD007108AE0062208A110A121D
:0A016C00B4005A20B30AA4280800CA
:1001760083160313071287120812881208138813AE
:1001860083120712871288130813881208120D208B
:100196000D200D208816081607160A2007120D20B6
:1001A60007160A2007120D2007160A2007120D202F
:1001B600081207160A2007120D2007160A20071232
:1001C6008812881707160A2007120D2088130816AA
:1001D60007160A200712081207160A2007120D2012
:1001E60007160A200712081607160A2007120D20FE
:1001F600081207160A200712881708178816081605
:0C02060007160A2007120D202C14080017
:100212001B29803083120313B0002E29C030B00096
:100222002E299430B0002E29D430B0002E298030EF
:10023200B0002E29831203133008013A03190A2948
:100242003008023A03190F293008033A0319122918
:100252003008043A0319152918293103F00030082F
:10026200F0077008B0007008B5001A202C10B30116
:10027200330832078400000803194729330832077C
:1002820084000008B4005A20B30A39292C1408004B
:1002920062208A110A128000840AAD0A0319AE0A8A
:0802A200F003031D49290800C7
:1002AA00503083120313A0006F30A1006C30A200FB
:1002BA006930A3007430A4006530A5006330A6003D
:1002CA006E30A7006930A8006330A9006F30AA0019
:1002DA00AB018316031788018901BB200130B500E1
:1002EA001A200C30B5001A204030B000C730B100D7
:1002FA000130B2009E200130B0000130B100B201DD
:10030A0069200230B0000130B1002030B20009216A
:10031A00AF0180302F06F0008030053A70020318D2
:10032A00A9291C30B5001A200430FB000C30FC004F
:10033A003330FD00FD0B9F29FC0B9F29FB0B9F29E6
:10034A0000000000AF0A8E29AF0180302F06F000AE
:10035A008030053A70020318C5291830B5001A20F2
:10036A000430FB000C30FC003330FD00FD0BBB29D0
:10037A00FC0BBB29FB0BBB2900000000AF0AAA2912
:04038A008D29C629CA
:10038E0011341F3415340E34153404341B34003438
:04400E00F42F000784
:00000001FF
