:0200000046298F
:0E000600213083120313FD00FD0B07280800B4
:06001400000000000800DE
:10001A000F3083120313FC004730FD00FD0B132839
:0A002A00FC0B132800000000080082
:1000340083120313BC1B20288813212888173C1B18
:100044002528081326280817BC1A2A2888122B28C2
:1000540088163C1A2F28081230280816301834281D
:1000640087163528871207160A200712BC193C2860
:1000740088133D2888173C1941280813422808177B
:10008400BC1846288812472888163C184B280812A2
:100094004C2808163018502887165128871207163E
:1000A4000A200712301C58280D2059280320080064
:0E00B4008312031336088A0035088200080004
:1000C20083120313F8010830FC00700DF80D740858
:1000D200F80203186E28F8070310F00DFC0B6628CF
:0200E200080014
:1000E4008312031330103B08BC001A20301408009C
:1000F4008C28803083120313B7009F28C030B700C8
:100104009F289430B7009F28D430B7009F288030B0
:10011400B7009F28831203133708013A03197B2879
:100124003708023A031980283708033A0319832849
:100134003708043A0319862889283803F000370859
:10014400F0077008B7007008BC001A203010BA011C
:100154003A083907840000080319B8283A0839070F
:1001640084000008BB007220BA0AAA2830140800D0
:1001740083160313071287120812881208138813B0
:1001840083120712871288130813881208120D208D
:100194000D200D208816081607160A2007120D20B8
:1001A40007160A2007120D2007160A2007120D2031
:1001B400081207160A2007120D2007160A20071234
:1001C4008812881707160A2007120D2088130816AC
:1001D40007160A200712081207160A2007120D2014
:1001E40007160A200712081607160A2007120D2000
:1001F400081207160A200712881708178816081607
:0C02040007160A2007120D203014080015
:1002100083120313B9010330390203181629390870
:100220003807840020308000B90A0B2939083807C4
:1002300084008001B90339083807BA000A30F40095
:100240003708F00061207808F0003030F0073A08F5
:100250008400700880000A30F4003708F000612044
:100260007008B7007008003A031D37293929B9030F
:040270001B2908003E
:100274005A208A110A128000840AB50A0319B60AA0
:08028400F003031D3A290800F4
:10028C0083120313A0014330A1006F30A2006E3023
:10029C00A3007430A4006130A5006430A6006F3058
:1002AC00A7007230A8002030A9006C30AA00693079
:1002BC00AB006230AC007230AD006530AE00AF0107
:1002CC008316031788018901BA200C30BC001A2050
:1002DC000130BC001A200130B7000130B8002130C9
:1002EC00B9007A202008B7003130B800082102305C
:1002FC00B7000630B8003130B9007A20A00A80303F
:10030C00093AF00080302006700203188E29A001F3
:10031C000630FB001330FC00AD30FD00FD0B9429C2
:10032C00FC0B9429FB0B94290000000078299D29D3
:04400E00F22F000786
:00000001FF
