:0200000046298F
:0E000600213083120313FD00FD0B07280800B4
:06001400000000000800DE
:10001A000F3083120313FC004730FD00FD0B132839
:0A002A00FC0B132800000000080082
:1000340083120313BB1B20288813212888173B1B1A
:100044002528081326280817BB1A2A2888122B28C3
:1000540088163B1A2F280812302808162F1834281F
:1000640087163528871207160A200712BB193C2861
:1000740088133D2888173B1941280813422808177C
:10008400BB1846288812472888163B184B280812A4
:100094004C2808162F18502887165128871207163F
:1000A4000A2007122F1C58280D2059280320080065
:0E00B4008312031335088A0034088200080006
:1000C20083120313F8010830FC00700DF80D740858
:1000D200F80203186E28F8070310F00DFC0B6628CF
:0200E200080014
:1000E400831203132F103A08BB001A202F140800A0
:1000F4008C28803083120313B6009F28C030B600CA
:100104009F289430B6009F28D430B6009F288030B2
:10011400B6009F28831203133608013A03197B287B
:100124003608023A031980283608033A031983284B
:100134003608043A0319862889283703F00036085C
:10014400F0077008B6007008BB001A202F10B90120
:1001540039083807840000080319B8283908380713
:1001640084000008BA007220B90AAA282F140800D3
:1001740083160313071287120812881208138813B0
:1001840083120712871288130813881208120D208D
:100194000D200D208816081607160A2007120D20B8
:1001A40007160A2007120D2007160A2007120D2031
:1001B400081207160A2007120D2007160A20071234
:1001C4008812881707160A2007120D2088130816AC
:1001D40007160A200712081207160A2007120D2014
:1001E40007160A200712081607160A2007120D2000
:1001F400081207160A200712881708178816081607
:0C02040007160A2007120D202F14080016
:1002100083120313B8010330380203181629380873
:100220003707840020308000B80A0B2938083707C8
:1002300084008001B80338083707B9000A30F40099
:100240003608F00061207808F0003030F0073908F7
:100250008400700880000A30F4003608F000612045
:100260007008B6007008003A031D37293929B80311
:040270001B2908003E
:100274005A208A110A128000840AB40A0319B50AA2
:08028400F003031D3A290800F4
:10028C0083120313A0014330A1006F30A2006E3023
:10029C00A3007430A4006130A5006430A6006F3058
:1002AC00A7007230A8002030A9003030AA002D30F1
:1002BC00AB003230AC003030AD00AE01831603170A
:1002CC0088018901BA200130BB001A200C30BB0018
:1002DC001A200130B6000230B7002130B8007A2065
:1002EC002008B6003030B70008210230B6000530C7
:1002FC00B7003030B8007A20A00A0630FB0013306B
:10030C00FC00AD30FD00FD0B8929FC0B8929FB0B92
:10031C008929000000008030143AF000803020065B
:0C032C00700203189A29A00176299B2971
:04400E00F52F000783
:00000001FF
