:020000001628C0
:0E000600831203132B088A002A0882000800C8
:1000140003208A110A128000840AAA0A0319AB0A6F
:08002400F003031D0A28080087
:10002C00FA3083120313A0002230A100B930A200D1
:10003C00AB30A3006330A400CB30A500DB30A600AE
:10004C00A230A700FB30A800E330A90083160317E9
:10005C008801890183120313880183168801071014
:10006C00871007118711831207148714071587153A
:10007C00AC01AE01AF012C08203E840000088800C2
:10008C0087110830FC00C930FD00FD0B4B28FC0B20
:10009C004B280000000087152E08203E8400000825
:1000AC00880007110830FC00C930FD00FD0B5C28EE
:1000BC00FC0B5C280000000007152F08203E840074
:1000CC000008880087100830FC00C930FD00FD0BCB
:1000DC006D28FC0B6D28000000008714AD0A8030E1
:1000EC000A3AF00080302D06700203189C28AD01EE
:1000FC00AC0A8030093AF00080302C0670020318EC
:10010C009C28AE0A8030093AF00080302E0670022E
:10011C0003189B28AE01AF0A8030093AF0008030FA
:10012C002F06700203189B28AF01AC0141289D28B3
:04400E00F22F000786
:00000001FF
