:0200000049298C
:0E000600213083120313FD00FD0B07280800B4
:06001400000000000800DE
:10001A000F3083120313FC004730FD00FD0B132839
:0A002A00FC0B132800000000080082
:1000340083120313DE1B20288813212888175E1BD4
:100044002528081326280817DE1A2A2888122B28A0
:1000540088165E1A2F2808123028081656183428D5
:1000640087163528871207160A200712DE193C283E
:1000740088133D2888175E19412808134228081759
:10008400DE1846288812472888165E184B2808125E
:100094004C28081656185028871651288712071618
:1000A4000A200712561C58280D205928032008003E
:0E00B4008312031355088A00540882000800C6
:1000C200023083120313FC004930FD00FD0B672848
:0A00D200FC0B672800000000080086
:1000DC008312031356105D08DE001A205614080014
:1000EC008828803083120313D7009B28C030D70098
:1000FC009B289430D7009B28D430D7009B28803085
:10010C00D7009B28831203135708013A0319772849
:10011C005708023A03197C285708033A03197F2819
:10012C005708043A0319822885285803F000570809
:10013C00F0077008D7007008DE001A205610DA019C
:10014C005A085907840000080319B4285A0859079B
:10015C0084000008DD006E20DA0AA6285614080078
:10016C0083160313071287120812881208138813B8
:10017C0083120712871288130813881208120D2095
:10018C000D200D208816081607160A2007120D20C0
:10019C0007160A2007120D2007160A2007120D2039
:1001AC00081207160A2007120D2007160A2007123C
:1001BC008812881707160A2007120D2088130816B4
:1001CC0007160A200712081207160A2007120D201C
:1001DC0007160A200712081607160A2007120D2008
:1001EC00081207160A20071288170817881608160F
:0C01FC0007160A2007120D2056140800F8
:1002080083120313DC015808F1000130F000710873
:1002180003191229F00D7010FF3E0C297008DB003D
:100228005708840070080005F10071080130031DAB
:100238000030F0005A08F00603193A295908003C22
:1002480003182A2961206120D9032229570884002C
:100258005B080005F10071080130031D0030F00053
:100268005A08F00603193A29FF30DC005C08F00050
:0202780008007C
:10027A005A208A110A128000840AD40A0319D50A5C
:08028A00F003031D3D290800EB
:100292001022831603178801890183120313860132
:1002A2008316860106140510831205108316811326
:1002B200B6200130DE001A200C30DE001A20013098
:1002C200D7000330D8004730D90076200430FB0035
:1002D2000C30FC003330FD00FD0B6D29FC0B6D2949
:1002E200FB0B6D29000000000130D7000330D8005D
:1002F2003A30D90076200630D700D801D901013032
:10030200DA0004217008031988290130AF00063091
:10031200D700D801D901DA01042170080319C729CD
:100322002F08013A031DC729AF010130DE001A2050
:1003320005140130D7000230D8002030D9007620D1
:100342000230D7000530D8003030D9007620063090
:10035200FB001330FC00AD30FD00FD0BAE29FC0BA1
:10036200AE29FB0BAE290000000005101F30FB0078
:100372007130FC001E30FD00FD0BBD29FC0BBD29B8
:10038200FB0BBD2900000130DE001A200430FB0007
:100392000C30FC003330FD00FD0BCD29FC0BCD29C8
:0C03A200FB0BCD29000000006029D629CB
:1004200020308400343083120313F000DC30D40019
:080430000130D5003D21080058
:1003B80054346F346D3465342034733475342034D8
:0E03C80062346F346C34653474346F34003436
:0203D6000034F1
:1003D80050346F3472346634613476346F34723426
:0403E8002134003488
:1003EC002034203420342034203420342034203461
:0A03FC002034203420342034003473
:100406004234693465346E34763465346E34693416
:0A04160064346F3473342134003471
:04400E00F42F000784
:00000001FF
