:020000001628C0
:0E0006008312031332088A00310882000800BA
:1000140003208A110A128000840AB10A0319B20A61
:08002400F003031D0A28080087
:10002C00FA3083120313A0002230A100B930A200D1
:10003C00AB30A3006330A400CB30A500DB30A600AE
:10004C00A230A700FB30A800E330A900F330AA00CF
:10005C005B30AB00D830AC003B30AD00D930AE00DB
:10006C00D130AF00B0018316031788018901031347
:10007C0088018312880183160710871007118711D6
:10008C00831207108714071587153008203E84004B
:10009C0000088800B00A0630FB001330FC00AD30BD
:1000AC00FD00FD0B5728FC0B5728FB0B57280000B5
:1000BC00000080300F3AF0008030300670020318D8
:0800CC006828B0014B286928E7
:04400E00F42F000784
:00000001FF
