:020000001628C0
:0E000600831203132C088A002B0882000800C6
:1000140003208A110A128000840AAB0A0319AC0A6D
:08002400F003031D0A28080087
:10002C00093083120313A000FA30A1002230A20081
:10003C00B930A300AB30A4006330A500CB30A600D0
:10004C00DB30A700A230A800FB30A900E330AA00E7
:10005C008316031788018901831203138801831601
:10006C0088018711831287110510831605108030C3
:10007C0083122006F0008030003A7002031C5B28CB
:10008C002008213E8400000888000630FB00133055
:10009C00FC00AD30FD00FD0B5128FC0B5128FB0B77
:1000AC00512800000000A0033D2880302006F000FD
:1000BC008030023A70020318832805140630FB00C6
:1000CC001330FC00AD30FD00FD0B6A28FC0B6A28D8
:1000DC00FB0B6A280000000005100630FB001330F3
:1000EC00FC00AD30FD00FD0B7928FC0B7928FB0BD7
:0C00FC00792800000000A00A5B2883287F
:04400E00F22F000786
:00000001FF
