:02000000602975
:0E000600213083120313FD00FD0B07280800B4
:06001400000000000800DE
:10001A000F3083120313FC004730FD00FD0B132839
:0A002A00FC0B132800000000080082
:1000340083120313D21B2028881321288817521BEC
:100044002528081326280817D21A2A2888122B28AC
:100054008816521A2F2808123028081644183428F3
:1000640087163528871207160A200712D2193C284A
:1000740088133D2888175219412808134228081765
:10008400D218462888124728881652184B28081276
:100094004C2808164418502887165128871207162A
:1000A4000A200712441C58280D2059280320080050
:0E00B400831203134B088A004A0882000800DA
:1000C20083120313F801F9011030FC00710DF80DD1
:1000D200F90D7408F8027508031C750FF90203186C
:1000E20079287408F80775080318750FF9070310C3
:0A00F200F00DF10DFC0B672808006B
:1000FC008312031344105108D2001A204414080030
:10010C009828803083120313CC00AB28C030CC006D
:10011C00AB289430CC00AB28D430CC00AB2880304A
:10012C00CC00AB28831203134C08013A031987281F
:10013C004C08023A03198C284C08033A03198F28EF
:10014C004C08043A0319922895284D03F0004C08EA
:10015C00F0077008CC007008D2001A204410CF01B0
:10016C004F084E07840000080319C4284F084E0797
:10017C0084000008D1007E20CF0AB6284414080061
:10018C008316031307128712081288120813881398
:10019C0083120712871288130813881208120D2075
:1001AC000D200D208816081607160A2007120D20A0
:1001BC0007160A2007120D2007160A2007120D2019
:1001CC00081207160A2007120D2007160A2007121C
:1001DC008812881707160A2007120D208813081694
:1001EC0007160A200712081207160A2007120D20FC
:1001FC0007160A200712081607160A2007120D20E8
:10020C00081207160A2007128817081788160816EE
:0C021C0007160A2007120D2044140800E9
:1002280083120313CF0105304F02031822294F0808
:100238004E07840020308000CF0A17294F084E0748
:1002480084008001CF034F084E07D0000A30F40025
:10025800F5014C08F0004D08F10061207808F00025
:100268007908F1003030F0075008840070088000E9
:100278000A30F400F5014C08F0004D08F100612047
:100288007008CC007108CD0000307106031D4E299E
:1002980000307006031D51295329CF032729080070
:1002A8005A208A110A128000840ACA0A0319CB0A42
:0802B800F003031D54290800A6
:1002C0000E228316031788018901C6200C30D20044
:1002D0001A200130CC000130CD002030CE00862025
:1002E0000130CC000130CD003330CE008620320802
:1002F000803A031D7D2900303106031D832901301A
:10030000B1000030B2003108CC003208CD004530D9
:10031000CE0014210230CC000130CD004530CE009B
:100320008620B10DB20D31100630FB001330FC00F9
:10033000AD30FD00FD0B9A29FC0B9A29FB0B9A2985
:10034000000000003108CC003208CD004530CE005E
:1003500014210230CC000630CD004530CE0086207E
:10036000B10DB20D31100630FB001330FC00AD3082
:10037000FD00FD0BB929FC0BB929FB0BB9290000C5
:1003800000003108CC003208CD004530CE001421E9
:100390000230CC000C30CD004530CE008620B10DAF
:1003A000B20D31100630FB001330FC00AD30FD0003
:1003B000FD0BD829FC0BD829FB0BD8290000000025
:0A03C0000130D2001A207029E42950
:10041C0020308400243083120313F000EA30CA0029
:08042C000130CB00542108004F
:1003D4005334653472346934653420346434653498
:1003E40020346E3475346D34653472346F34733440
:0203F4000034D3
:0403F600013400349A
:1003FA005334653472346934653420346434653472
:10040A0020346E3475346D34653472346F34733419
:02041A000034AC
:04400E00F42F000784
:00000001FF
