:020000004E2B85
:10000600103083120313FD00FD0B072800000800C3
:10001600083083120313FC002330FD00FD0B11286A
:06002600FC0B112808008C
:04002C0000000800C8
:1000300083120313F801F9011030FC00710DF80D63
:10004000F90D7408F8027508031C750FF9020318FE
:1000500030287408F80775080318750FF90703109E
:0A006000F00DF10DFC0B1E28080046
:10006A0083160313A41B3C28831288133E28831289
:10007A0088178316241B44288312081346288312E0
:10008A0008178316A41A4C28831288124E28831242
:10009A0088168316241A54288312081256288312A3
:1000AA00081655185A2887165B288712071616202D
:1000BA0007128316A41964288312881366288312E8
:1000CA008817831624196C28831208136E28831242
:1000DA0008178316A41874288312881276288312A4
:1000EA008816831624187C28831208127E28831205
:1000FA00081655188228871683288712071616208D
:0E010A000712551C8A280B208B2803200800A2
:0E011800F201F101F001F801F30100300800DE
:08012600FA1FF213003008007B
:10012E007B15FB1FA1280130F300F201F101F00154
:08013E00FA0DF20CFF3008007D
:100146008312031355106F088316A4003520551427
:0201560008009F
:0E0158008312031354088A0053088200080023
:0E016600073083120313FD00FD0BB7280800BD
:1001740083120313EF0105306F020318CA286F08B6
:10018400831622078400203080008312EF0ABD28E2
:100194006F0883162207840080018312EF036F081F
:1001A40083162207A3000A30F400F5012008F000AA
:1001B4002108F10018207808F0007908F1003030A7
:1001C400F007831623088400700880000A30F400C6
:1001D400F5012008F0002108F100182070088316AA
:1001E400A0007108A10000307106031DFB28003037
:1001F4007006031DFE2801298312EF03D12808008D
:10020400A0017208031D17297108F2007008F1009B
:10021400F001A0157208031D17297108F200F101FD
:10022400A01120167208031925292008F302031DC2
:10023400031C29290310F21B2D29F00DF10DF20DD9
:10024400F30B1D2929290130FC008C2030290230B0
:0E025400FC00972030290430FC0093200800A5
:10026200FB14FB1F3B29FF30F300F200F100F0000A
:08027200FA0DF20CFF30080048
:10027A007B14FB1F4829F201FA1FFF30F200F1003C
:0A028A00F000FA0DF20CFF3008003E
:1002940083120313FB017308031D77080319A129B3
:1002A40072087606FA007708F3077E30031C5E298D
:1002B400F3020318A4296129F302031CA729720875
:1002C400F8007108FC007008FD00F817F617031019
:1002D400F201F101F0011830A0007D1C7B297408A3
:1002E400F00775080318750FF10776080318760FE1
:1002F400F207F20CF10CF00CF80CFC0CFD0C0310E2
:10030400A00B6F29F21B8B29F80DF00DF10DF20DE6
:10031400F3037B1B701C9D29F81F9D29F00A031908
:10032400F10A0319F20A031D9D29F20CF10CF00CD9
:10033400F30A0319A429FA1FF2130030A929013082
:100344008C20A92902303121A929043097200000EA
:0203540008009F
:10035600C330831203139F05C0309F006608F00068
:10036600F00D7010F00D701070089F0483169F1723
:1003760083121F14B3209F149F1CC3290000BF299A
:100386001F101E08F100F00183161E08F00400304D
:04039600F104080066
:10039A0083120313FB01FC01FA01730803190C2AE7
:1003AA00F2178E30F302F31BDD290319DD290F2A18
:1003BA00F309F30A08307302031CF229F300F10D62
:1003CA007208F100F20108307302031CF229F10DE0
:1003DA00F1017308031D0310FA2973080319FA2996
:1003EA000310F20CF10CF30BF5297B1B711C042A88
:1003FA00031C042AF10A0319F20AF21B1B2AFA1F28
:10040A001E2AF209F109F10A0319F20A1E2AF20157
:10041A00F1011E2A7B14FB1F212AF201FA1F212A4D
:10042A00FF30F200F100FA0DF20C212A0130FC0033
:10043A00232A0030FC00232AFF30FC00FC080319A1
:0E044A00272A3D217108F0007208F100080019
:1004580083120313EB01EC016608ED006708EE0058
:1004680080306706F00080307002031D3D2A00309E
:10047800660203184B2A0130EB000030EC006608D6
:10048800003CED006708031C013EEE01EE026D081A
:100498008316A00083126E088316A10083126808D1
:1004A8008316A200BA20063083120313E900003035
:1004B800EA006A08003C031D632A6908003C031827
:1004C8007E2A69086807F20001306902F0000030EE
:1004D800031C013E6A02F1007008680784000008E6
:1004E800F00072088400700880000130E902031CE3
:1004F800EA035D2A68088400203080006B086C04D9
:1005080003199C2AE901EA016908680784000008C0
:10051800203A031D932AE90A0319EA0A882A0130B6
:10052800E902031CEA036908680784002D3080008B
:020538000800B9
:10053A0083160313071287120812881208138813E6
:10054A0083120712871288130813881208120B20C5
:10055A000B200B20881608160716162007120B20E8
:10056A000716162007120B200716162007120B2053
:10057A0008120716162007120B2007161620071254
:10058A00881288170716162007120B2088130816D8
:10059A0007161620071208120716162007120B2034
:1005AA0007161620071208160716162007120B2020
:1005BA000812071616200712881708178816081631
:0C05CA000716162007120B20551408001D
:1005D600FD2A803083120313E600102BC030E6009C
:1005E600102B9430E600102BD430E600102B803010
:1005F600E600102B831203136608013A0319EC2A4E
:100606006608023A0319F12A6608033A0319F42A1E
:100616006608043A0319F72AFA2A6703F0006608FF
:10062600F0077008E60070088316A4003520551000
:10063600E901690868078400000803192A2B69087C
:10064600680784000008EF00A320E90A1C2B551454
:0206560008009A
:10065800831203137008F8007108F000F101F20129
:10066800F301FB01FC019630F300FA017008F10078
:0C0678007808F000F801F20102210800EF
:10068400AC208A110A128000840AD30A0319D40AFE
:08069400F003031D422B0800D6
:10069C00062483160317880189018312031385012D
:1006AC00FF308316850083128601831686149D22E3
:1006BC0001308316A40035200C308316A40035209D
:1006CC000130E6000130E7002130E800EB22023077
:1006DC00E6000130E7003230E800EB228618782B78
:1006EC000130D200861CCC2B5208013A031DCC2BB6
:1006FC00D20101308316A40035200130E60003300E
:10070C00E7004530E800EB220230E600AB21700830
:10071C008312DE007108DF002C232330F400DB3061
:10072C00F5007930F6007C30F7004A217008E200C1
:10073C007108E3007208E4007308E500CD2170082D
:10074C00E0007108E1007008E6007108E70056301F
:10075C00E8002C220230E6000430E7005630E800B6
:10076C00EB220230E6000A30E7004330E800EB22CF
:10077C000630FB001330FC00AD30FD00FD0BC42B2C
:10078C00FC0BC42BFB0BC42B00000000742BCD2BDB
:10080C0021308400323083120313F000D330D30034
:08081C000330D4004223080060
:1007A60041346334743469347634613420346534C6
:1007B6006C342034733465346E3473346F3472346D
:0207C6000034FD
:1007C8007034613472346134203476346534723470
:1007D80020346C3461342034543465346D347034CE
:0207E8000034DB
:0407EA004334003460
:1007EE00543465346D347034653472346134743419
:0A07FE007534723461343A3400346B
:020808000034BA
:04400E00F22F000786
:00000001FF
