:020000005C287A
:10000600023083120313FC004930FD00FD0B092862
:0A001600FC0B0928000000000800A0
:0E0020008312031324088A00230882000800BC
:10002E0010208A110A128000840AA30A0319A40A56
:08003E00F003031D1728080060
:1000460083120313AA012608F1000130F00071089B
:1000560003193128F00D7010FF3E2B287008A900F7
:100066002508840070080005F10071080130031DA1
:100076000030F0002808F006031959282708003C2C
:100086000318492803200320A703412825088400D4
:1000960029080005F10071080130031D0030F00049
:1000A6002808F00603195928FF30AA002A08F0008C
:0200B600080040
:1000B80083120313A0010130A100A20183160317C4
:1000C800880189018312031388018316880183122A
:1000D80086018316061481138312220888000630CD
:1000E800A500A601A7010130A80023207008031964
:1000F8007F280130A0000630A500A6010A30A7001D
:10010800A801232070080319AB282008013A031D11
:10011800AB28A0012108003A031D9328A203210857
:10012800013A031D9828A20A80300E3AF000803068
:10013800220670020318A128A10180302206F000CF
:100148008030013A70020318AB280130A1007028F2
:02015800AC28D1
:04400E00F22F000786
:00000001FF
