:020000001628C0
:0E000600831203132D088A002C0882000800C4
:1000140003208A110A128000840AAC0A0319AD0A6B
:08002400F003031D0A28080087
:10002C0083120313A001FA30A1002230A200B930D0
:10003C00A300AB30A4006330A500CB30A600DB30AE
:10004C00A700A230A800FB30A900E330AA00AB0146
:10005C008316031788018901831203138801831601
:10006C0088018312031787138813831603138614CE
:10007C0007108710071187118312071487140715AF
:10008C00871183160510831205102B08213E84005E
:10009C00000888000330FB008A30FC005530FD005E
:1000AC00FD0B5628FC0B5628FB0B562800000000B5
:1000BC000510861863280130A000861C75282008BE
:1000CC00013A031D7528A001AB0A05148030093ACA
:1000DC00F00080302B06700203187528AB014B28FA
:0200EC00762874
:04400E00F42F000784
:00000001FF
