:020000005C287A
:10000600023083120313FC004930FD00FD0B092862
:0A001600FC0B0928000000000800A0
:0E002000831203132D088A002C0882000800AA
:10002E0010208A110A128000840AAC0A0319AD0A44
:08003E00F003031D1728080060
:1000460083120313B3012F08F1000130F000710889
:1000560003193128F00D7010FF3E2B287008B200EE
:100066002E08840070080005F10071080130031D98
:100076000030F0003108F006031959283008003C1A
:100086000318492803200320B00341282E088400C2
:1000960032080005F10071080130031D0030F00040
:1000A6003108F00603195928FF30B3003308F00071
:0200B600080040
:1000B80083120313A001A101FA30A2002230A30089
:1000C800B930A400AB30A5006330A600CB30A70040
:1000D800DB30A800A230A900FB30AA00E330AB0057
:1000E8008316031788018901031388018312880185
:1000F80086018316860106140710871007118711D9
:100108008312071487140715871183168113831226
:100118002008223E8400000888000630AE00AF01A7
:10012800B0010130B1002320700803199D28013067
:10013800A1000630AE00AF010A30B000B1012320A3
:1001480070080319B6282108013A031DB628A10131
:10015800A00A8030093AF0008030200670020318A7
:08016800B628A0018B28B7287E
:04400E00F22F000786
:00000001FF
