:020000001628C0
:0E000600831203132B088A002A0882000800C8
:1000140003208A110A128000840AAA0A0319AB0A6F
:08002400F003031D0A28080087
:10002C00FA3083120313A0002230A100B930A200D1
:10003C00AB30A3006330A400CB30A500DB30A600AE
:10004C00A230A700FB30A800E330A90083160317E9
:10005C008801890183120313880183168801071014
:10006C00871007118711831207148714071587153A
:10007C00AC01AD01AF01B0012C08203E840000089A
:10008C00880087110830FC00C930FD00FD0B4C289E
:10009C00FC0B4C280000000087152D08203E840026
:1000AC000008880007110830FC00C930FD00FD0B6A
:1000BC005D28FC0B5D280000000007152F08203E72
:1000CC0084000008880087100830FC00C930FD004F
:1000DC00FD0B6E28FC0B6E28000000008714300806
:1000EC00203E84000008880007100830FC00C9304E
:1000FC00FD00FD0B7F28FC0B7F280000000007147F
:10010C00AE0A8030013AF00080302E0670020318DF
:10011C00B828AE01AC0A8030093AF00080302C06C9
:10012C0070020318B828AD0A8030093AF00080300C
:10013C002D0670020318B728AD01AF0A8030093ABA
:10014C00F00080302F0670020318B728AF01B00AF8
:10015C008030093AF0008030300670020318B7285E
:08016C00B001AC014228B928E2
:04400E00F22F000786
:00000001FF
