:020000001628C0
:0E0006008312031325088A00240882000800D4
:1000140003208A110A128000840AA40A0319A50A7B
:08002400F003031D0A28080087
:10002C00F13083120313A000FA30A1005830A20063
:10003C005030A30083160317880189018312031320
:10004C008801831688010710871007118711831206
:10005C000714871407158715200888000710083027
:10006C00FC00C930FD00FD0B3928FC0B39280000C1
:10007C00000007142108880087100830FC00C930E4
:10008C00FD00FD0B4728FC0B4728000000008714DF
:10009C002208880007110830FC00C930FD00FD0B58
:1000AC005528FC0B55280000000007152308880074
:1000BC0087110830FC00C930FD00FD0B6328FC0BD8
:0C00CC00632800000000871532286B2814
:04400E00F22F000786
:00000001FF
