:020000005C287A
:10000600023083120313FC004930FD00FD0B092862
:0A001600FC0B0928000000000800A0
:0E002000831203132D088A002C0882000800AA
:10002E0010208A110A128000840AAC0A0319AD0A44
:08003E00F003031D1728080060
:1000460083120313B3012F08F1000130F000710889
:1000560003193128F00D7010FF3E2B287008B200EE
:100066002E08840070080005F10071080130031D98
:100076000030F0003108F006031959283008003C1A
:100086000318492803200320B00341282E088400C2
:1000960032080005F10071080130031D0030F00040
:1000A6003108F00603195928FF30B3003308F00071
:0200B600080040
:1000B80083120313A001A101FA30A2002230A30089
:1000C800B930A400AB30A5006330A600CB30A70040
:1000D800DB30A800A230A900FB30AA00E330AB0057
:1000E8008316031788018901031388018312880185
:1000F800860183168601061486148113071087105B
:100108000711871183120714871407158711200810
:10011800223E8400000888000630AE00AF0105309A
:10012800B0000130B100232070080319A828063058
:10013800AE000130AF00B0010130B10023207008DB
:100148000319A8280130A1000630AE00AF01B001A4
:10015800B101232070080319C0282108013A031DA2
:10016800C028A101A00A8030093AF000803020069A
:1001780070020318C028A0010630AE000130AF009D
:10018800B001B101232070080319DA282108013AC7
:10019800031DDA28A101A00380302006F00080307A
:1001A800003A70020318DA280930A0008B28DB28EF
:04400E00F22F000786
:00000001FF
