:02000000432E8D
:06000600000000000800EC
:10000C000F3083120313FC004730FD00FD0B0C284E
:0A001C00FC0B0C2800000000080097
:0E002600213083120313FD00FD0B1728080084
:1000340083120317971B2128031388132328031300
:1000440088170317171B2928031308132B280313D6
:1000540008170317971A3128031388123328031338
:1000640088160317171A3928031308123B28031399
:1000740008168316661841288312871643288312AC
:100084008712071603200712031797194C28031326
:1000940088134E28031388170317171954280313BA
:1000A4000813562803130817031797185C2803131B
:1000B40088125E280313881603171718642803137D
:1000C4000812662803130816831666186C28831210
:1000D40087166E28831287120716032007128316C9
:0C00E400661C76280620772813200800F0
:1000F000023083120313FC004930FD00FD0B7E2803
:0A010000FC0B7E2800000000080040
:10010A0083160313661083120317160897001A2022
:06011A00831666140800C4
:0E012000831603136B088A006A088200080029
:10012E00A9288030831203179000BC28C03090009D
:10013E00BC2894309000BC28D4309000BC2880306D
:10014E009000BC28831203171008013A031998284F
:10015E001008023A03199D281008033A0319A02823
:10016E001008043A0319A328A6281103F00010085A
:10017E00F00770089000700897001A20831666101A
:10018E008312031793011308120784000008031942
:10019E00DA281308120784000008960085208312BF
:0E01AE000317930ACA28831603136614080069
:1001BC00F02880308312031790000329C030900080
:1001CC000329943090000329D43090000329803007
:1001DC0090000329831203171008013A0319DF2832
:1001EC001008023A0319E4281008033A0319E72807
:1001FC001008043A0319EA28ED281103F00010083E
:10020C00F0077008900083160313661470088312AD
:10021C00031797001A20831666108312031712080F
:0A022C0097001A20831666140800DC
:100236008312031795011108F1000130F0007108CF
:1002460003192929F00D7010FF3E23297008940028
:100256001008840070080005F10071080130031DC4
:100266000030F0001308F006031952291208003C6A
:100276000318422978207820031792033929100899
:10028600840014080005F10071080130031D0030D8
:10029600F0001308F00603195229FF3095001508DF
:0402A600F00008005C
:1002AA00013083120317900003309100D23092007C
:1002BA0097200B30FB002630FC005D30FD00FD0B63
:1002CA006429FC0B6429FB0B64290000000006303A
:1002DA00E700E9010130E8001030E2000230E300F3
:1002EA000130E100013083120317900006309100BB
:1002FA009201DE206308831203179000831603130A
:10030A00620883120317910003309200DE208312E1
:10031A00B601B7013A08013A031DC52D83166708CD
:10032A006206031DEE2968086306031DEE290130E3
:10033A008312031797001A20013003179000043024
:10034A0091003B30920097200130E7008030670629
:10035A00F0008030123A70020318DE296703E400C5
:10036A00023083120317900083160313670883125F
:10037A000317910003309200DE2002308312031724
:10038A009000831603136408831203179100383010
:10039A00920097200230FB000430FC00BA30FD00C6
:1003AA00FD0BD529FC0BD529FB0BD5290000E70A43
:1003BA00AB290630FB001330FC00AD30FD00FD0B0D
:1003CA00E429FC0BE429FB0BE4290000000083125A
:1003DA00BA0183166108013A031D232AE203620A5D
:1003EA008312EF00831663088312031790008316A3
:1003FA000313620883120317910003309200DE2070
:10040A00630883120317900003136F080317910000
:10041A002D3092009720620A8312EF008316620839
:10042A00013A031D232AE101D030FC00C930FD0046
:10043A00FD0B1D2AFC0B1D2A000000006108003A72
:10044A00031D4E2AE20A62038312EF008316630831
:10045A00831203179000831603136208831203178B
:10046A00910003309200DE20630883120317900084
:10047A0003136F080317910020309200972062033C
:10048A008312EF0083166208103A031D4E2A0130C8
:10049A00E10083123A08013A031DF42C8316670817
:1004AA006206031DAE2A68086306031DAE2A0130E0
:1004BA008312031797001A200130031790000430A3
:1004CA0091002230920097200130E70080306706C1
:1004DA00F0008030123A700203189E2A6703E40083
:1004EA0002308312031790008316031367088312DE
:1004FA000317910003309200DE20023083120317A3
:10050A0090008316031364088312031791002F3097
:10051A00920097200230FB000430FC00BA30FD0044
:10052A00FD0B952AFC0B952AFB0B952A0000E70A7E
:10053A006B2A0630FB001330FC00AD30FD00FD0BCA
:10054A00A42AFC0BA42AFB0BA42A00000000831295
:10055A00BA01831206300317900091010A30920003
:10056A00013093001B2170080319FC2A0630900001
:10057A00013091000A309200013093001B2170086B
:10058A000319FC2A831603136808831203179000C1
:10059A008316031367088312031791008316031344
:1005AA006908831203179200DE20B630FC00D030AF
:1005BA00FD00FD0BDE2AFC0BDE2A00006808831210
:1005CA000317900083160313670883120317910019
:1005DA0002309200DE20B630FC00D030FD00FD0B68
:1005EA00F42AFC0BF42A00008312B601B701063084
:1005FA000317900091019201013093001B217008AA
:10060A00031D132B06309000013091009201013036
:10061A0093001B217008031D132B162B0313B6011D
:10062A00B70106300317900091011430920093012C
:10063A001B21700803196D2B03133608003A031D9A
:10064A006D2B0130B7008316E7036708003A031DD4
:10065A00302B0130E700670AE000680883120317AD
:10066A009000831603136708831203179100013061
:10067A009200DE2068088312031790008316031382
:10068A006008831203179100343092009720B63025
:10069A00FC00D030FD00FD0B502BFC0B502B000052
:1006AA0068088312031790008316031367088312DE
:1006BA000317910002309200DE20B630FC00D030E1
:1006CA00FD00FD0B662BFC0B662B00000130E900D8
:1006DA000630831203179000013091001430920003
:1006EA0093011B2170080319C42B03133708003A1E
:1006FA00031DC42B0130B6008316E70A6708113AB6
:10070A00031D892B1030E7006703E4006808831291
:10071A0003179000831603136708831203179100C7
:10072A009201DE20680883120317900083160313D0
:10073A006408831203179100313092009720B63073
:10074A00FC00D030FD00FD0BA82BFC0BA82B0000F1
:10075A00680883120317900083160313670883122D
:10076A000317910002309200DE20B630FC00D03030
:10077A00FD00FD0BBE2BFC0BBE2B0000E901063071
:10078A008312031790000230910092010130930006
:10079A001B2170080319DF2B0630900003309100EB
:1007AA009201013093001B2170080319DF2B0130DD
:1007BA000313B3000630031790000330910092012F
:1007CA0093011B2170080319062C03133308013AFD
:1007DA00031D062CB30183166808013A031D062C73
:1007EA000230E8000130E50001308312031790005F
:1007FA00831603136708831203179100AC30920023
:10080A00972006308312031790000230910092015C
:10081A0093011B21700803192D2C03133308013A85
:10082A00031D2D2C83166808023A031D2D2C013056
:10083A00E8000230E50002308312031790008316A5
:10084A0003136708831203179100AE3092009720B2
:10085A00063083120317900004309100920193012D
:10086A001B2170080319F42C02300313BA0001305B
:10087A00031797001A2001308316E400013083120F
:10088A000317900005309100A030920097200230A3
:10089A0083120317900005309100A630920097202A
:1008AA008312B301831203133A08023A031DF42C8C
:1008BA000630031790000230910092010130930034
:1008CA001B2170080319822C063090000330910016
:1008DA009201013093001B2170080319822C063003
:1008EA009000043091009201013093001B2170089E
:1008FA000319822C01300313B3000313831664080F
:10090A0083120317900004309100B03092009720B0
:10091A00063083120317900003309100920193016D
:10092A001B2170080319AA2C03133308013A031D6B
:10093A00AA2C02308316E4000130831203179000B8
:10094A0004309100CE3092009720063083120317AC
:10095A00900002309100920193011B217008031943
:10096A00C72C03133308013A031DC72C0130831621
:10097A00E400023083120317900004309100D03053
:10098A0092009720063083120317900004309100DA
:10099A00920193011B2170080319F32C03133308E6
:1009AA00013A031DF32CB3010130031797001A20F3
:1009BA0001300317900001309100B2309200972065
:1009CA006408013A031DEC2C01308312BA00831625
:1009DA006408023A031DF32C8312BA01572C8312BE
:1009EA0003133A08003A031DC42D01300317970078
:1009FA001A2001300317900001309100BF30920095
:100A0A0097200230831203179000023091004B3076
:100A1A009200972002308312031790000130910050
:100A2A0003309200DE201030FB003930FC000D301C
:100A3A00FD00FD0B1E2DFC0B1E2DFB0B1E2D0000B9
:100A4A000000E70180306706F0008030123A700239
:100A5A0003186B2D6703E40001308312031790001B
:100A6A008316031367088312031791009201DE208D
:100A7A00013083120317900083160313640883124C
:100A8A00031791005A3092009720B630FC00D030FC
:100A9A00FD00FD0B4E2DFC0B4E2D00000130831284
:100AAA000317900083160313670883120317910034
:100ABA0002309200DE20B630FC00D030FD00FD0B83
:100ACA00642DFC0B642D0000E70A272D1030E70087
:100ADA008030FD3AF0008030670670020318B22DAC
:100AEA00670AE40002308312031790008316031387
:100AFA00670883120317910001309200DE2002304A
:100B0A0083120317900083160313640883120317D2
:100B1A009100463092009720B630FC00D030FD009C
:100B2A00FD0B952DFC0B952D000002308312031747
:100B3A00900083160313670883120317910002308B
:100B4A009200DE20B630FC00D030FD00FD0BAB2D4C
:100B5A00FC0BAB2D0000E7036D2D01308312031748
:100B6A0097001A200330FB000830FC007730FD00A4
:100B7A00FD0BBD2DFC0BBD2DFB0BBD2DB3018F292C
:020B8A00080061
:100B8C00831603136C088312031797001A2083161D
:100B9C00EF0108306F020318E72D6F086D07F000A6
:100BAC006E080318013EF1007008EA007108EB00B2
:100BBC0090208A110A128312031796008520EF0ADF
:040BCC00CF2D080021
:100BD00090208A110A128000840AEA0A0319EB0A9B
:080BE000F003031DE82D0800DD
:100BE8008316031307128712081288120813881332
:100BF8008312071287128813081388120812062016
:100C08000620062088160816071603200712062055
:100C180007160320071206200716032007120620CE
:100C280008120716032007120620071603200712CA
:100C3800881288170716032007120620881308163B
:100C480007160320071208120716032007120620AA
:100C58000716032007120816071603200712062096
:100C6800081207160320071288170817881608168F
:0E0C78000716032007120620831666140800D4
:100C8600B2278316031788018901831287138813F5
:100C96008601831603130614861406158615061692
:100CA6008617FF308312880083168113F4250C30D3
:100CB6008312031797001A2040308316EC009930F0
:100CC600ED000730EE00C6254830EC00A130ED00FF
:100CD6000730EE00C6255030EC00A930ED00073095
:100CE600EE00C6255830EC009130ED000730EE00DE
:100CF600C62501308312031790000A309100033095
:100D06009200DE2001308312031790000730910015
:100D16009201DE2001308312031790000530910006
:100D26004830920097200130831203179000083054
:100D360091005C30920097200130831203179000D7
:100D46000B30910066309200972002308312031711
:100D56009000063091006830920097200330FB0027
:100D66000830FC007730FD00FD0BB72EFC0BB72ECC
:100D7600FB0BB72E0130831203179000073091004A
:100D860002309200DE2002308312031790000630F4
:100D960091005F30920097200330FB000830FC0082
:100DA6007730FD00FD0BD52EFC0BD52EFB0BD52E7B
:100DB60006308312031790000430910092019301CC
:100DC6001B2170080319F42E03133308003A031D80
:100DD600F42E0130BA000130B3000130031797003A
:100DE6001A2003133A08013A031DFB2E5521F42E4F
:040DF6007C2EFC2E25
:100F6400203084004F3083120313F00002308316C4
:100F7400EA000730EB00E825A03084004030F000A0
:0E0F840051308316EA000730EB00E825080024
:040E04002034003462
:100E0800473461346D34653420346F347634653456
:060E1800723421340034A5
:040E1E002034003448
:040E22002034003444
:040E26002034003440
:020E2A00003492
:040E2C00203400343A
:020E300000348C
:020E320000348A
:040E34002034003432
:020E3800003484
:100E3A00473461346D34653420346F347634653424
:060E4A0072342134003473
:040E50002034003416
:060E54005034613400344B
:100E5A002E342E342E342E3420344C346F347634DF
:0E0E6A00653463347234613466347434003499
:040E780020340034EE
:060E7C002D346D3400343A
:0E0E82005334743461347234743421340034C7
:040E90006E34003488
:0E0E9400203420342034203420342034003424
:0C0EA20050346134753473346134003412
:0C0EAE00533461346C3469347234003405
:040EBA0020340034AC
:040EBE0020340034A8
:040EC2007E34003446
:100EC600443465346A3461342034763475343F34BE
:0A0ED6002E342E342E342E34003456
:100EE0004434653476343A3420344A3475346134C9
:0E0EF0006E3420344A346F3473346534003469
:040EFE002034003468
:040F02002034003463
:100F060049346E3469346334693461346E3464341C
:0C0F16006F342E342E342E342E34003470
:100F2200003400340E341F3415341F3415340034A9
:100F3200003400340E341C3418341C340E340034A3
:100F4200003400340E340734033407340E340034D2
:100F5200003400340E341F341F341F340E34003476
:04400E00F22F000786
:00000001FF
