:020000000329D2
:0E000600213083120313FD00FD0B07280800B4
:100014000F3083120313FC004730FD00FD0B102842
:0A002400FC0B10280000000008008B
:06002E00000000000800C4
:1000340083120313DF1B20288813212888175F1BD2
:100044002528081326280817DF1A2A2888122B289F
:1000540088165F1A2F2808123028081657183428D3
:10006400871635288712071617200712DF193C2830
:1000740088133D2888175F19412808134228081758
:10008400DF1846288812472888165F184B2808125C
:100094004C28081657185028871651288712071617
:1000A40017200712571C58280A2059280320080033
:0E00B4008312031359088A00580882000800BE
:1000C2008312031357105E08DF001A20571408002A
:1000D2008316031307128712081288120813881353
:1000E20083120712871288130813881208120A2033
:1000F2000A200A20881608160716172007120A2057
:100102000716172007120A200716172007120A20BF
:1001120008120716172007120A20071617200712BF
:10012200881288170716172007120A208813081644
:1001320007161720071208120716172007120A209F
:1001420007161720071208160716172007120A208B
:10015200081207161720071288170817881608169C
:0C0162000716172007120A205714080087
:10016E00C928803083120313DA00DC28C030DA008D
:10017E00DC289430DA00DC28D430DA00DC28803039
:10018E00DA00DC28831203135A08013A0319B8283F
:10019E005A08023A0319BD285A08033A0319C0280F
:1001AE005A08043A0319C328C6285B03F0005A08FC
:1001BE00F0077008DA007008DF001A205710DD0112
:1001CE005D085C07840000080319F5285D085C07CC
:1001DE0084000008DE006120DD0AE72857140800BD
:1001EE005A208A110A128000840AD80A0319D90AE1
:0801FE00F003031DF7280800BF
:100206009C218316031788018901031305108312A5
:10021600051069200C30DF001A200130DF001A209B
:100226000130DA000130DB003C30DC00B720023060
:10023600DA000130DB004930DC00B7200B30FB0070
:100246002630FC005D30FD00FD0B2729FC0B27291D
:10025600FB0B2729000000000130DF001A200130C7
:10026600DA000130DB002030DC00B7200630FB006E
:100276001330FC00AD30FD00FD0B3F29FC0B3F2980
:10028600FB0B3F290000000005140230DA000130A4
:10029600DB003030DC00B7200630FB001330FC00FA
:1002A600AD30FD00FD0B5529FC0B5529FB0B5529DF
:0802B6000000000005105E29A4
:1003380020308400373083120313F0006430D80073
:080348000130D900F720080084
:1002C8005434753420346E346F346D34623472347F
:1002D8006534203461347134753469342134003420
:1002E80042346F346C34653474346134203461348E
:0802F8007134753469340034DF
:10030000503472346F346734723461346D34613414
:0A031000633469346F346E34003436
:10031A00443465346C3420345034493443343134F1
:0C032A003634463438343834373400346C
:04400E00F22F000786
:00000001FF
