:0200000049298C
:0E000600213083120313FD00FD0B07280800B4
:06001400000000000800DE
:10001A000F3083120313FC004730FD00FD0B132839
:0A002A00FC0B132800000000080082
:1000340083120313C51B2028881321288817451B06
:100044002528081326280817C51A2A2888122B28B9
:100054008816451A2F280812302808163B18342809
:1000640087163528871207160A200712C5193C2857
:1000740088133D2888174519412808134228081772
:10008400C518462888124728881645184B28081290
:100094004C2808163B185028871651288712071633
:1000A4000A2007123B1C58280D2059280320080059
:0E00B400831203133D088A003C0882000800F6
:1000C200023083120313FC004930FD00FD0B672848
:0A00D200FC0B672800000000080086
:1000DC00831203133B104408C5001A203B1408007C
:1000EC008828803083120313BE009B28C030BE00CA
:1000FC009B289430BE009B28D430BE009B288030B7
:10010C00BE009B28831203133E08013A031977287B
:10011C003E08023A03197C283E08033A03197F284B
:10012C003E08043A0319822885283F03F0003E0854
:10013C00F0077008BE007008C5001A203B10C10102
:10014C0041084007840000080319B42841084007FF
:10015C0084000008C4006E20C10AA6283B140800C5
:10016C0083160313071287120812881208138813B8
:10017C0083120712871288130813881208120D2095
:10018C000D200D208816081607160A2007120D20C0
:10019C0007160A2007120D2007160A2007120D2039
:1001AC00081207160A2007120D2007160A2007123C
:1001BC008812881707160A2007120D2088130816B4
:1001CC0007160A200712081207160A2007120D201C
:1001DC0007160A200712081607160A2007120D2008
:1001EC00081207160A20071288170817881608160F
:0C01FC0007160A2007120D203B14080013
:1002080083120313C3013F08F1000130F0007108A5
:1002180003191229F00D7010FF3E0C297008C20056
:100228003E08840070080005F10071080130031DC4
:100238000030F0004108F00603193A294008003C54
:1002480003182A2961206120C00322293E0884005E
:1002580042080005F10071080130031D0030F0006C
:100268004108F00603193A29FF30C3004308F0009B
:0202780008007C
:10027A005A208A110A128000840ABC0A0319BD0A8C
:08028A00F003031D3D290800EB
:1002920083120313A0014930A1007A30A200713009
:1002A200A3007C30A4005030A5006130A600753058
:1002B200A7002E30A8007C30A9004430AA00653087
:1002C200AB007230AC00AD014230AE003130AF0055
:1002D2002030B0007C30B1002030B2004230B30098
:1002E2003230B4002030B5007C30B6002030B70088
:1002F2004230B8003330B900BA01831603178801BF
:1003020089018312871388130313880183168801D6
:1003120083128501831685100511831286018316C7
:10032200061486140615B6200C30C5001A200130BA
:10033200C5001A200130BE000130BF002E30C000BF
:1003420076200230BE000130BF002130C00076208E
:100352000630FB001330FC00AD30FD00FD0BAF2971
:10036200FC0BAF29FB0BAF290000000083168113A1
:10037200831288010630BE00BF01C001C101042101
:1003820070080319C6290130A0000630BE000130F2
:10039200BF00C001C101042170080319D129A001C5
:1003A2000630BE000230BF00C001C1010421700846
:1003B2000319DD290230A0002008003A031DFF299D
:1003C200850188010230FB000430FC00BA30FD00D8
:1003D200FD0BE929FC0BE929FB0BE9290000FF30A1
:1003E20088000230FB000430FC00BA30FD00FD0B37
:1003F200F829FC0BF829FB0BF82900002008013A28
:10040200031D232A0130880085140430FB000C30C0
:10041200FC003330FD00FD0B0C2AFC0B0C2AFB0BFD
:100422000C2A0000000005110430FB000C30FC0017
:100432003330FD00FD0B1B2AFC0B1B2AFB0B1B2A76
:10044200000000002008023A031D472A02308800FB
:1004520085100430FB000C30FC003330FD00FD0B36
:10046200302AFC0B302AFB0B302A00000000051555
:100472000430FB000C30FC003330FD00FD0B3F2A42
:10048200FC0B3F2AFB0B3F2A00000000B929482A37
:04400E00F22F000786
:00000001FF
