:020000001628C0
:0E0006008312031321088A00200882000800DC
:1000140003208A110A128000840AA00A0319A10A83
:08002400F003031D0A28080087
:10002C00831603178801890183128713881303131E
:10003C008501831685100511851105128312860121
:10004C00A20180302206F0008030033A70020318BF
:10005C005E2885010630FB001330FC00AD30FD003E
:10006C00FD0B3628FC0B3628FB0B36280000000055
:10007C0085140430FB000C30FC003330FD00FD0B0C
:10008C004528FC0B4528FB0B4528000000000511FA
:10009C000430FB000C30FC003330FD00FD0B542809
:1000AC00FC0B5428FB0B542800000000A20A272844
:1000BC00A20180302206F0008030023A7002031850
:1000CC00962885010630FB001330FC00AD30FD0096
:1000DC00FD0B6E28FC0B6E28FB0B6E28000000003D
:1000EC0085100430FB000C30FC003330FD00FD0BA0
:1000FC007D28FC0B7D28FB0B7D28000000000515DE
:10010C000430FB000C30FC003330FD00FD0B8C2860
:10011C00FC0B8C28FB0B8C2800000000A20A5F282B
:04012C0026289728C2
:04400E00F22F000786
:00000001FF
